{
  "_format": "hh-sol-artifact-1",
  "contractName": "NounsAuctionReferral",
  "sourceName": "contracts/NounsAuctionReferral.sol",
  "abi": [
    {
      "inputs": [
        {
          "internalType": "address",
          "name": "_admin",
          "type": "address"
        },
        {
          "internalType": "contract INounsAuctionHouse",
          "name": "_auction",
          "type": "address"
        }
      ],
      "stateMutability": "nonpayable",
      "type": "constructor"
    },
    {
      "inputs": [],
      "name": "_acceptAdmin",
      "outputs": [],
      "stateMutability": "nonpayable",
      "type": "function"
    },
    {
      "inputs": [
        {
          "internalType": "address",
          "name": "newPendingAdmin",
          "type": "address"
        }
      ],
      "name": "_setPendingAdmin",
      "outputs": [],
      "stateMutability": "nonpayable",
      "type": "function"
    },
    {
      "inputs": [],
      "name": "admin",
      "outputs": [
        {
          "internalType": "address",
          "name": "",
          "type": "address"
        }
      ],
      "stateMutability": "view",
      "type": "function"
    },
    {
      "inputs": [
        {
          "internalType": "uint256",
          "name": "nounId_",
          "type": "uint256"
        },
        {
          "internalType": "uint256",
          "name": "referralNounsID_",
          "type": "uint256"
        }
      ],
      "name": "createBid",
      "outputs": [],
      "stateMutability": "payable",
      "type": "function"
    },
    {
      "inputs": [
        {
          "internalType": "address",
          "name": "socialNounsToken_",
          "type": "address"
        },
        {
          "internalType": "uint8",
          "name": "share_",
          "type": "uint8"
        },
        {
          "internalType": "address",
          "name": "weth_",
          "type": "address"
        },
        {
          "internalType": "uint256",
          "name": "reservePrice_",
          "type": "uint256"
        },
        {
          "internalType": "uint8",
          "name": "minBidIncrementPercentage_",
          "type": "uint8"
        }
      ],
      "name": "initialize",
      "outputs": [],
      "stateMutability": "nonpayable",
      "type": "function"
    },
    {
      "inputs": [],
      "name": "pendingAdmin",
      "outputs": [
        {
          "internalType": "address",
          "name": "",
          "type": "address"
        }
      ],
      "stateMutability": "view",
      "type": "function"
    },
    {
      "inputs": [],
      "name": "returnAuction",
      "outputs": [
        {
          "internalType": "uint256",
          "name": "",
          "type": "uint256"
        },
        {
          "internalType": "uint256",
          "name": "",
          "type": "uint256"
        },
        {
          "internalType": "uint256",
          "name": "",
          "type": "uint256"
        }
      ],
      "stateMutability": "view",
      "type": "function"
    },
    {
      "inputs": [],
      "name": "settleCurrentAndCreateNewAuction",
      "outputs": [],
      "stateMutability": "nonpayable",
      "type": "function"
    },
    {
      "inputs": [],
      "name": "socialNounsTokenInterface",
      "outputs": [
        {
          "internalType": "contract INounsToken",
          "name": "",
          "type": "address"
        }
      ],
      "stateMutability": "view",
      "type": "function"
    },
    {
      "inputs": [],
      "name": "weth",
      "outputs": [
        {
          "internalType": "address",
          "name": "",
          "type": "address"
        }
      ],
      "stateMutability": "view",
      "type": "function"
    },
    {
      "inputs": [],
      "name": "withdrawNoun",
      "outputs": [],
      "stateMutability": "nonpayable",
      "type": "function"
    },
    {
      "stateMutability": "payable",
      "type": "receive"
    }
  ],
  "bytecode": "0x60a06040526009805462ff0000191690553480156200001d57600080fd5b5060405162001a0938038062001a0983398101604081905262000040916200007f565b600180546001600160a01b0319166001600160a01b0393841617905516608052620000be565b6001600160a01b03811681146200007c57600080fd5b50565b600080604083850312156200009357600080fd5b8251620000a08162000066565b6020840151909250620000b38162000066565b809150509250929050565b608051611913620000f6600039600081816105f801528181610bc901528181610f9c01528181611123015261120901526119136000f3fe6080604052600436106100c05760003560e01c8063b7751c7111610074578063e9c714f21161004e578063e9c714f214610217578063f25efffc1461022c578063f851a4401461024157600080fd5b8063b7751c71146101bf578063c02261ec146101d2578063e51f003a146101e757600080fd5b80633fc8cef3116100a55780633fc8cef314610150578063a6a573891461017d578063b71d1a0c1461019f57600080fd5b806312bfc59e146100cc578063267822471461012357600080fd5b366100c757005b600080fd5b3480156100d857600080fd5b506003546100f99073ffffffffffffffffffffffffffffffffffffffff1681565b60405173ffffffffffffffffffffffffffffffffffffffff90911681526020015b60405180910390f35b34801561012f57600080fd5b506002546100f99073ffffffffffffffffffffffffffffffffffffffff1681565b34801561015c57600080fd5b506000546100f99073ffffffffffffffffffffffffffffffffffffffff1681565b34801561018957600080fd5b5061019d610198366004611555565b61026e565b005b3480156101ab57600080fd5b5061019d6101ba3660046115b7565b61051d565b61019d6101cd3660046115db565b6105f1565b3480156101de57600080fd5b5061019d610cb3565b3480156101f357600080fd5b506101fc610f91565b6040805193845260208401929092529082015260600161011a565b34801561022357600080fd5b5061019d61103b565b34801561023857600080fd5b5061019d61111f565b34801561024d57600080fd5b506001546100f99073ffffffffffffffffffffffffffffffffffffffff1681565b60095462010000900460ff16156102f25760405162461bcd60e51b815260206004820152602e60248201527f52657653686172653a3a696e697469616c697a653a2063616e206f6e6c79206960448201527f6e697469616c697a65206f6e636500000000000000000000000000000000000060648201526084015b60405180910390fd5b60015473ffffffffffffffffffffffffffffffffffffffff1633146103595760405162461bcd60e51b815260206004820181905260248201527f52657653686172653a3a696e697469616c697a653a2061646d696e206f6e6c7960448201526064016102e9565b73ffffffffffffffffffffffffffffffffffffffff85166103e25760405162461bcd60e51b815260206004820152602b60248201527f52657653686172653a3a696e697469616c697a653a20696e76616c6964206e6f60448201527f756e73206164647265737300000000000000000000000000000000000000000060648201526084016102e9565b60008460ff161161045b5760405162461bcd60e51b815260206004820152602560248201527f52657653686172653a3a696e697469616c697a653a2073686172652063616e7460448201527f206265203000000000000000000000000000000000000000000000000000000060648201526084016102e9565b6003805473ffffffffffffffffffffffffffffffffffffffff9687167fffffffffffffffffffffffff00000000000000000000000000000000000000009182161790915560098054600080549690981695909216949094179095556008919091557fffffffffffffffffffffffffffffffffffffffffffffffffffffffffff00ff0060ff93841661010002167fffffffffffffffffffffffffffffffffffffffffffffffffffffffffff00000090941693909317919092161762010000179055565b60015473ffffffffffffffffffffffffffffffffffffffff1633146105aa5760405162461bcd60e51b815260206004820152602660248201527f52657653686172653a3a5f73657450656e64696e6741646d696e3a2061646d6960448201527f6e206f6e6c79000000000000000000000000000000000000000000000000000060648201526084016102e9565b600280547fffffffffffffffffffffffff00000000000000000000000000000000000000001673ffffffffffffffffffffffffffffffffffffffff92909216919091179055565b60008060007f000000000000000000000000000000000000000000000000000000000000000073ffffffffffffffffffffffffffffffffffffffff16637d9f6db56040518163ffffffff1660e01b815260040160c060405180830381865afa158015610661573d6000803e3d6000fd5b505050506040513d601f19601f82011682018060405250810190610685919061160d565b5050935050925092508483146106dd5760405162461bcd60e51b815260206004820152601e60248201527f536f6369616c204e6f756e206e6f7420757020666f722061756374696f6e000060448201526064016102e9565b80421061072c5760405162461bcd60e51b815260206004820152600f60248201527f41756374696f6e2065787069726564000000000000000000000000000000000060448201526064016102e9565b8484106107a15760405162461bcd60e51b815260206004820152602e60248201527f41756374696f6e20666f72207468697320736f6369616c206e6f756e2068617360448201527f206e6f7420656e6465642079657400000000000000000000000000000000000060648201526084016102e9565b6008543410156107f35760405162461bcd60e51b815260206004820152601f60248201527f4d7573742073656e64206174206c65617374207265736572766550726963650060448201526064016102e9565b6009546064906108069060ff1684611696565b61081091906116d3565b61081a908361170e565b341015610891576040805162461bcd60e51b81526020600482015260248101919091527f4d7573742073656e64206d6f7265207468616e206c617374206269642062792060448201527f6d696e426964496e6372656d656e7450657263656e7461676520616d6f756e7460648201526084016102e9565b6009546064906108a990610100900460ff1634611696565b6108b391906116d3565b4710156109025760405162461bcd60e51b815260206004820152601760248201527f436f6e74726163742062616c616e636520746f206c6f7700000000000000000060448201526064016102e9565b60045485118015610914575060045415155b15610b6c576003546040517f70a0823100000000000000000000000000000000000000000000000000000000815230600482015260009173ffffffffffffffffffffffffffffffffffffffff16906370a0823190602401602060405180830381865afa158015610988573d6000803e3d6000fd5b505050506040513d601f19601f820116820180604052508101906109ac9190611726565b1115610b6c57600354600654600480546040517f23b872dd000000000000000000000000000000000000000000000000000000008152309281019290925273ffffffffffffffffffffffffffffffffffffffff928316602483015260448201529116906323b872dd90606401600060405180830381600087803b158015610a3257600080fd5b505af1158015610a46573d6000803e3d6000fd5b50506003546007546040517f6352211e00000000000000000000000000000000000000000000000000000000815260048101919091526000935073ffffffffffffffffffffffffffffffffffffffff9091169150636352211e90602401602060405180830381865afa158015610ac0573d6000803e3d6000fd5b505050506040513d601f19601f82011682018060405250810190610ae4919061173f565b905073ffffffffffffffffffffffffffffffffffffffff811615610b3357600954600554610b33918391606491610b249161010090910460ff1690611696565b610b2e91906116d3565b611360565b50600060048190556005819055600680547fffffffffffffffffffffffff00000000000000000000000000000000000000001690556007555b60065473ffffffffffffffffffffffffffffffffffffffff168015610b9a57610b9a81600460010154611360565b6040517f659dd2b4000000000000000000000000000000000000000000000000000000008152600481018790527f000000000000000000000000000000000000000000000000000000000000000073ffffffffffffffffffffffffffffffffffffffff169063659dd2b49034906024016000604051808303818588803b158015610c2357600080fd5b505af193505050508015610c35575060015b610c7257610c4161175c565b806308c379a003610c665750610c556117ea565b80610c605750610c68565b50610cab565b505b3d6000803e3d6000fd5b600486905534600555600680547fffffffffffffffffffffffff0000000000000000000000000000000000000000163317905560078590555b505050505050565b6003546040517f70a0823100000000000000000000000000000000000000000000000000000000815230600482015260009173ffffffffffffffffffffffffffffffffffffffff16906370a0823190602401602060405180830381865afa158015610d22573d6000803e3d6000fd5b505050506040513d601f19601f82011682018060405250810190610d469190611726565b11610d935760405162461bcd60e51b815260206004820152601360248201527f4e6f7468696e6720746f2077697468647261770000000000000000000000000060448201526064016102e9565b600454600003610de55760405162461bcd60e51b815260206004820152601160248201527f4c6173742042696420697320656d70747900000000000000000000000000000060448201526064016102e9565b600354600654600480546040517f23b872dd000000000000000000000000000000000000000000000000000000008152309281019290925273ffffffffffffffffffffffffffffffffffffffff928316602483015260448201529116906323b872dd90606401600060405180830381600087803b158015610e6557600080fd5b505af1158015610e79573d6000803e3d6000fd5b50506003546007546040517f6352211e00000000000000000000000000000000000000000000000000000000815260048101919091526000935073ffffffffffffffffffffffffffffffffffffffff9091169150636352211e90602401602060405180830381865afa158015610ef3573d6000803e3d6000fd5b505050506040513d601f19601f82011682018060405250810190610f17919061173f565b905073ffffffffffffffffffffffffffffffffffffffff811615610f5757600954600554610f57918391606491610b249161010090910460ff1690611696565b50600060048190556005819055600680547fffffffffffffffffffffffff0000000000000000000000000000000000000000169055600755565b6000806000806000807f000000000000000000000000000000000000000000000000000000000000000073ffffffffffffffffffffffffffffffffffffffff16637d9f6db56040518163ffffffff1660e01b815260040160c060405180830381865afa158015611005573d6000803e3d6000fd5b505050506040513d601f19601f82011682018060405250810190611029919061160d565b50939a92995097509095505050505050565b60025473ffffffffffffffffffffffffffffffffffffffff163314801561106157503315155b6110d35760405162461bcd60e51b815260206004820152602a60248201527f52657653686172653a3a5f61636365707441646d696e3a2070656e64696e672060448201527f61646d696e206f6e6c790000000000000000000000000000000000000000000060648201526084016102e9565b60028054600180547fffffffffffffffffffffffff000000000000000000000000000000000000000090811673ffffffffffffffffffffffffffffffffffffffff841617909155169055565b60007f000000000000000000000000000000000000000000000000000000000000000073ffffffffffffffffffffffffffffffffffffffff16637d9f6db56040518163ffffffff1660e01b815260040160c060405180830381865afa15801561118c573d6000803e3d6000fd5b505050506040513d601f19601f820116820180604052508101906111b0919061160d565b50509350505050804210156112075760405162461bcd60e51b815260206004820152601860248201527f41756374696f6e206861736e277420636f6d706c65746564000000000000000060448201526064016102e9565b7f000000000000000000000000000000000000000000000000000000000000000073ffffffffffffffffffffffffffffffffffffffff1663f25efffc6040518163ffffffff1660e01b8152600401600060405180830381600087803b15801561126f57600080fd5b505af1925050508015611280575060015b6112af5761128c61175c565b806308c379a003610c6657506112a06117ea565b806112ab5750610c68565b5050565b6003546040517f70a0823100000000000000000000000000000000000000000000000000000000815230600482015260009173ffffffffffffffffffffffffffffffffffffffff16906370a0823190602401602060405180830381865afa15801561131e573d6000803e3d6000fd5b505050506040513d601f19601f820116820180604052508101906113429190611726565b118015611350575060045415155b1561135d5761135d610cb3565b50565b61136a8282611492565b6112ab5760008054906101000a900473ffffffffffffffffffffffffffffffffffffffff1673ffffffffffffffffffffffffffffffffffffffff1663d0e30db0826040518263ffffffff1660e01b81526004016000604051808303818588803b1580156113d657600080fd5b505af11580156113ea573d6000803e3d6000fd5b50506000546040517fa9059cbb00000000000000000000000000000000000000000000000000000000815273ffffffffffffffffffffffffffffffffffffffff878116600483015260248201879052909116935063a9059cbb925060440190506020604051808303816000875af1158015611469573d6000803e3d6000fd5b505050506040513d601f19601f8201168201806040525081019061148d9190611887565b505050565b60408051600080825260208201909252819073ffffffffffffffffffffffffffffffffffffffff8516906175309085906040516114cf91906118a2565b600060405180830381858888f193505050503d806000811461150d576040519150601f19603f3d011682016040523d82523d6000602084013e611512565b606091505b509095945050505050565b73ffffffffffffffffffffffffffffffffffffffff8116811461135d57600080fd5b803560ff8116811461155057600080fd5b919050565b600080600080600060a0868803121561156d57600080fd5b85356115788161151d565b94506115866020870161153f565b935060408601356115968161151d565b9250606086013591506115ab6080870161153f565b90509295509295909350565b6000602082840312156115c957600080fd5b81356115d48161151d565b9392505050565b600080604083850312156115ee57600080fd5b50508035926020909101359150565b8051801515811461155057600080fd5b60008060008060008060c0878903121561162657600080fd5b86519550602087015194506040870151935060608701519250608087015161164d8161151d565b915061165b60a088016115fd565b90509295509295509295565b7f4e487b7100000000000000000000000000000000000000000000000000000000600052601160045260246000fd5b6000817fffffffffffffffffffffffffffffffffffffffffffffffffffffffffffffffff04831182151516156116ce576116ce611667565b500290565b600082611709577f4e487b7100000000000000000000000000000000000000000000000000000000600052601260045260246000fd5b500490565b6000821982111561172157611721611667565b500190565b60006020828403121561173857600080fd5b5051919050565b60006020828403121561175157600080fd5b81516115d48161151d565b600060033d11156117755760046000803e5060005160e01c5b90565b7fffffffffffffffffffffffffffffffffffffffffffffffffffffffffffffffe0601f830116810181811067ffffffffffffffff821117156117e3577f4e487b7100000000000000000000000000000000000000000000000000000000600052604160045260246000fd5b6040525050565b600060443d10156117f85790565b6040517ffffffffffffffffffffffffffffffffffffffffffffffffffffffffffffffffc803d016004833e81513d67ffffffffffffffff816024840111818411171561184657505050505090565b828501915081518181111561185e5750505050505090565b843d87010160208285010111156118785750505050505090565b61151260208286010187611778565b60006020828403121561189957600080fd5b6115d4826115fd565b6000825160005b818110156118c357602081860181015185830152016118a9565b818111156118d2576000828501525b50919091019291505056fea2646970667358221220892d12da9b11398187e31ddaae6e633ec956c032b165c4dcea6f2bb32e3218d364736f6c634300080f0033",
  "linkReferences": {},
  "deployedLinkReferences": {}
}